{
  "contractName": "Ownerap",
  "abi": [
    {
      "constant": true,
      "inputs": [
        {
          "name": "",
          "type": "address"
        }
      ],
      "name": "mapApproval",
      "outputs": [
        {
          "name": "",
          "type": "uint256"
        }
      ],
      "payable": false,
      "stateMutability": "view",
      "type": "function"
    },
    {
      "constant": true,
      "inputs": [],
      "name": "minApproval",
      "outputs": [
        {
          "name": "",
          "type": "uint8"
        }
      ],
      "payable": false,
      "stateMutability": "view",
      "type": "function"
    },
    {
      "constant": true,
      "inputs": [],
      "name": "info",
      "outputs": [
        {
          "name": "",
          "type": "string"
        }
      ],
      "payable": false,
      "stateMutability": "view",
      "type": "function"
    },
    {
      "constant": true,
      "inputs": [],
      "name": "quantOwner",
      "outputs": [
        {
          "name": "",
          "type": "uint8"
        }
      ],
      "payable": false,
      "stateMutability": "view",
      "type": "function"
    },
    {
      "constant": true,
      "inputs": [
        {
          "name": "",
          "type": "uint256"
        }
      ],
      "name": "arrayApproval",
      "outputs": [
        {
          "name": "",
          "type": "address"
        }
      ],
      "payable": false,
      "stateMutability": "view",
      "type": "function"
    },
    {
      "constant": true,
      "inputs": [
        {
          "name": "",
          "type": "address"
        }
      ],
      "name": "owner",
      "outputs": [
        {
          "name": "",
          "type": "bool"
        }
      ],
      "payable": false,
      "stateMutability": "view",
      "type": "function"
    },
    {
      "inputs": [],
      "payable": false,
      "stateMutability": "nonpayable",
      "type": "constructor"
    },
    {
      "anonymous": false,
      "inputs": [
        {
          "indexed": false,
          "name": "_minBefore",
          "type": "uint8"
        },
        {
          "indexed": false,
          "name": "_minActual",
          "type": "uint8"
        }
      ],
      "name": "MinApprovalChanged",
      "type": "event"
    },
    {
      "anonymous": false,
      "inputs": [
        {
          "indexed": true,
          "name": "_address",
          "type": "address"
        }
      ],
      "name": "OwnerAdded",
      "type": "event"
    },
    {
      "anonymous": false,
      "inputs": [
        {
          "indexed": true,
          "name": "_address",
          "type": "address"
        }
      ],
      "name": "OwnerDeleted",
      "type": "event"
    },
    {
      "constant": false,
      "inputs": [
        {
          "name": "_minApproval",
          "type": "uint8"
        }
      ],
      "name": "changeMinApproval",
      "outputs": [],
      "payable": false,
      "stateMutability": "nonpayable",
      "type": "function"
    },
    {
      "constant": false,
      "inputs": [
        {
          "name": "_address",
          "type": "address"
        }
      ],
      "name": "addOwner",
      "outputs": [],
      "payable": false,
      "stateMutability": "nonpayable",
      "type": "function"
    },
    {
      "constant": false,
      "inputs": [
        {
          "name": "_address",
          "type": "address"
        }
      ],
      "name": "delOwner",
      "outputs": [],
      "payable": false,
      "stateMutability": "nonpayable",
      "type": "function"
    },
    {
      "constant": false,
      "inputs": [],
      "name": "doApproval",
      "outputs": [],
      "payable": false,
      "stateMutability": "nonpayable",
      "type": "function"
    },
    {
      "constant": false,
      "inputs": [],
      "name": "cancelApproval",
      "outputs": [],
      "payable": false,
      "stateMutability": "nonpayable",
      "type": "function"
    },
    {
      "constant": false,
      "inputs": [],
      "name": "resetAllApproval",
      "outputs": [],
      "payable": false,
      "stateMutability": "nonpayable",
      "type": "function"
    },
    {
      "constant": true,
      "inputs": [
        {
          "name": "_address",
          "type": "address"
        }
      ],
      "name": "checkApproval",
      "outputs": [
        {
          "name": "",
          "type": "uint256"
        }
      ],
      "payable": false,
      "stateMutability": "view",
      "type": "function"
    },
    {
      "constant": true,
      "inputs": [],
      "name": "listApproval",
      "outputs": [
        {
          "name": "",
          "type": "address[]"
        }
      ],
      "payable": false,
      "stateMutability": "view",
      "type": "function"
    },
    {
      "constant": true,
      "inputs": [],
      "name": "countApproval",
      "outputs": [
        {
          "name": "",
          "type": "uint256"
        }
      ],
      "payable": false,
      "stateMutability": "view",
      "type": "function"
    },
    {
      "constant": false,
      "inputs": [
        {
          "name": "_info",
          "type": "string"
        }
      ],
      "name": "setInfo",
      "outputs": [],
      "payable": false,
      "stateMutability": "nonpayable",
      "type": "function"
    }
  ],
  "bytecode": "0x608060405234801561001057600080fd5b506003600090806001815401808255809150509060018203906000526020600020016000909192909190916101000a81548173ffffffffffffffffffffffffffffffffffffffff021916908373ffffffffffffffffffffffffffffffffffffffff160217905550506001600460006101000a81548160ff021916908360ff16021790555060016000803373ffffffffffffffffffffffffffffffffffffffff1673ffffffffffffffffffffffffffffffffffffffff16815260200190815260200160002060006101000a81548160ff02191690831515021790555060018060006101000a81548160ff021916908360ff160217905550611c79806101156000396000f3fe6080604052600436106100e0576000357c010000000000000000000000000000000000000000000000000000000090048063017ab25b146100e557806303ff90f61461014a5780632c6f11b81461017b578063370158ea146101e75780634268adcd14610277578063491bb588146102a8578063666e1b39146103235780637065cb481461038c57806373984188146103dd578063937f6e771461042e578063a1b2acc1146104f6578063a4bd7b8d1461050d578063b9db9a6d14610538578063e9262dae1461054f578063ec29e26c1461058d578063ee196fb8146105f2575b600080fd5b3480156100f157600080fd5b506101346004803603602081101561010857600080fd5b81019080803573ffffffffffffffffffffffffffffffffffffffff169060200190929190505050610609565b6040518082815260200191505060405180910390f35b34801561015657600080fd5b5061015f610621565b604051808260ff1660ff16815260200191505060405180910390f35b34801561018757600080fd5b50610190610634565b6040518080602001828103825283818151815260200191508051906020019060200280838360005b838110156101d35780820151818401526020810190506101b8565b505050509050019250505060405180910390f35b3480156101f357600080fd5b506101fc6106c2565b6040518080602001828103825283818151815260200191508051906020019080838360005b8381101561023c578082015181840152602081019050610221565b50505050905090810190601f1680156102695780820380516001836020036101000a031916815260200191505b509250505060405180910390f35b34801561028357600080fd5b5061028c610760565b604051808260ff1660ff16815260200191505060405180910390f35b3480156102b457600080fd5b506102e1600480360360208110156102cb57600080fd5b8101908080359060200190929190505050610773565b604051808273ffffffffffffffffffffffffffffffffffffffff1673ffffffffffffffffffffffffffffffffffffffff16815260200191505060405180910390f35b34801561032f57600080fd5b506103726004803603602081101561034657600080fd5b81019080803573ffffffffffffffffffffffffffffffffffffffff1690602001909291905050506107b1565b604051808215151515815260200191505060405180910390f35b34801561039857600080fd5b506103db600480360360208110156103af57600080fd5b81019080803573ffffffffffffffffffffffffffffffffffffffff1690602001909291905050506107d1565b005b3480156103e957600080fd5b5061042c6004803603602081101561040057600080fd5b81019080803573ffffffffffffffffffffffffffffffffffffffff169060200190929190505050610ae4565b005b34801561043a57600080fd5b506104f46004803603602081101561045157600080fd5b810190808035906020019064010000000081111561046e57600080fd5b82018360208201111561048057600080fd5b803590602001918460018302840111640100000000831117156104a257600080fd5b91908080601f016020809104026020016040519081016040528093929190818152602001838380828437600081840152601f19601f820116905080830192505050505050509192919290505050610f5d565b005b34801561050257600080fd5b5061050b611037565b005b34801561051957600080fd5b50610522611378565b6040518082815260200191505060405180910390f35b34801561054457600080fd5b5061054d611388565b005b34801561055b57600080fd5b5061058b6004803603602081101561057257600080fd5b81019080803560ff16906020019092919050505061150a565b005b34801561059957600080fd5b506105dc600480360360208110156105b057600080fd5b81019080803573ffffffffffffffffffffffffffffffffffffffff1690602001909291905050506117bb565b6040518082815260200191505060405180910390f35b3480156105fe57600080fd5b50610607611809565b005b60026020528060005260406000206000915090505481565b600460009054906101000a900460ff1681565b606060038054806020026020016040519081016040528092919081815260200182805480156106b857602002820191906000526020600020905b8160009054906101000a900473ffffffffffffffffffffffffffffffffffffffff1673ffffffffffffffffffffffffffffffffffffffff168152602001906001019080831161066e575b5050505050905090565b60058054600181600116156101000203166002900480601f0160208091040260200160405190810160405280929190818152602001828054600181600116156101000203166002900480156107585780601f1061072d57610100808354040283529160200191610758565b820191906000526020600020905b81548152906001019060200180831161073b57829003601f168201915b505050505081565b600160009054906101000a900460ff1681565b60038181548110151561078257fe5b906000526020600020016000915054906101000a900473ffffffffffffffffffffffffffffffffffffffff1681565b60006020528060005260406000206000915054906101000a900460ff1681565b6000803373ffffffffffffffffffffffffffffffffffffffff1673ffffffffffffffffffffffffffffffffffffffff16815260200190815260200160002060009054906101000a900460ff161515610891576040517f08c379a00000000000000000000000000000000000000000000000000000000081526004018080602001828103825260158152602001807f61646472657373206d757374206265206f776e6572000000000000000000000081525060200191505060405180910390fd5b600460009054906101000a900460ff1660ff1660016003805490500310151515610949576040517f08c379a00000000000000000000000000000000000000000000000000000000081526004018080602001828103825260268152602001807f63757272656e7420617070726f76616c73206973206c657373207468656e206d81526020017f696e696d756d000000000000000000000000000000000000000000000000000081525060400191505060405180910390fd5b80600015156000808373ffffffffffffffffffffffffffffffffffffffff1673ffffffffffffffffffffffffffffffffffffffff16815260200190815260200160002060009054906101000a900460ff161515141515610a11576040517f08c379a000000000000000000000000000000000000000000000000000000000815260040180806020018281038252600c8152602001807f6f776e657220657869737473000000000000000000000000000000000000000081525060200191505060405180910390fd5b60016000808473ffffffffffffffffffffffffffffffffffffffff1673ffffffffffffffffffffffffffffffffffffffff16815260200190815260200160002060006101000a81548160ff02191690831515021790555060018060008282829054906101000a900460ff160192506101000a81548160ff021916908360ff1602179055508173ffffffffffffffffffffffffffffffffffffffff167f994a936646fe87ffe4f1e469d3d6aa417d6b855598397f323de5b449f765f0c360405160405180910390a2610ae0611a34565b5050565b6000803373ffffffffffffffffffffffffffffffffffffffff1673ffffffffffffffffffffffffffffffffffffffff16815260200190815260200160002060009054906101000a900460ff161515610ba4576040517f08c379a00000000000000000000000000000000000000000000000000000000081526004018080602001828103825260158152602001807f61646472657373206d757374206265206f776e6572000000000000000000000081525060200191505060405180910390fd5b600460009054906101000a900460ff1660ff1660016003805490500310151515610c5c576040517f08c379a00000000000000000000000000000000000000000000000000000000081526004018080602001828103825260268152602001807f63757272656e7420617070726f76616c73206973206c657373207468656e206d81526020017f696e696d756d000000000000000000000000000000000000000000000000000081525060400191505060405180910390fd5b80600115156000808373ffffffffffffffffffffffffffffffffffffffff1673ffffffffffffffffffffffffffffffffffffffff16815260200190815260200160002060009054906101000a900460ff161515141515610d24576040517f08c379a00000000000000000000000000000000000000000000000000000000081526004018080602001828103825260108152602001807f6f776e6572206e6f74206578697374730000000000000000000000000000000081525060200191505060405180910390fd5b600460009054906101000a900460ff1660ff16600160009054906101000a900460ff1660ff1610151515610de6576040517f08c379a00000000000000000000000000000000000000000000000000000000081526004018080602001828103825260348152602001807f7175616e744f776e6572206d75737420626520657175616c206f72206772656181526020017f746572207468616e206d696e417070726f76616c00000000000000000000000081525060400191505060405180910390fd5b8173ffffffffffffffffffffffffffffffffffffffff163373ffffffffffffffffffffffffffffffffffffffff1614151515610e8a576040517f08c379a000000000000000000000000000000000000000000000000000000000815260040180806020018281038252601f8152602001807f616464726573732063616e206e6f742072656d6f766520796f757273656c660081525060200191505060405180910390fd5b60008060008473ffffffffffffffffffffffffffffffffffffffff1673ffffffffffffffffffffffffffffffffffffffff16815260200190815260200160002060006101000a81548160ff02191690831515021790555060018060008282829054906101000a900460ff160392506101000a81548160ff021916908360ff1602179055508173ffffffffffffffffffffffffffffffffffffffff167febfcf264b2104087f09153632448fc6624ccfe2984ade6a26248f2b9c28e436a60405160405180910390a2610f59611a34565b5050565b600460009054906101000a900460ff1660ff1660016003805490500310151515611015576040517f08c379a00000000000000000000000000000000000000000000000000000000081526004018080602001828103825260268152602001807f63757272656e7420617070726f76616c73206973206c657373207468656e206d81526020017f696e696d756d000000000000000000000000000000000000000000000000000081525060400191505060405180910390fd5b806005908051906020019061102b929190611b5b565b50611034611a34565b50565b6000803373ffffffffffffffffffffffffffffffffffffffff1673ffffffffffffffffffffffffffffffffffffffff16815260200190815260200160002060009054906101000a900460ff1615156110f7576040517f08c379a00000000000000000000000000000000000000000000000000000000081526004018080602001828103825260158152602001807f61646472657373206d757374206265206f776e6572000000000000000000000081525060200191505060405180910390fd5b6000600260003373ffffffffffffffffffffffffffffffffffffffff1673ffffffffffffffffffffffffffffffffffffffff168152602001908152602001600020541115156111ae576040517f08c379a00000000000000000000000000000000000000000000000000000000081526004018080602001828103825260188152602001807f61646472657373206e6f7420617070726f76656420796574000000000000000081525060200191505060405180910390fd5b6000600260003373ffffffffffffffffffffffffffffffffffffffff1673ffffffffffffffffffffffffffffffffffffffff1681526020019081526020016000205490506000600260003373ffffffffffffffffffffffffffffffffffffffff1673ffffffffffffffffffffffffffffffffffffffff168152602001908152602001600020819055506000600360016003805490500381548110151561125057fe5b9060005260206000200160009054906101000a900473ffffffffffffffffffffffffffffffffffffffff1690508060038381548110151561128d57fe5b9060005260206000200160006101000a81548173ffffffffffffffffffffffffffffffffffffffff021916908373ffffffffffffffffffffffffffffffffffffffff16021790555081600260008373ffffffffffffffffffffffffffffffffffffffff1673ffffffffffffffffffffffffffffffffffffffff16815260200190815260200160002081905550600380548091906001900361132e9190611bdb565b506000600260003373ffffffffffffffffffffffffffffffffffffffff1673ffffffffffffffffffffffffffffffffffffffff168152602001908152602001600020819055505050565b6000600160038054905003905090565b6000803373ffffffffffffffffffffffffffffffffffffffff1673ffffffffffffffffffffffffffffffffffffffff16815260200190815260200160002060009054906101000a900460ff161515611448576040517f08c379a00000000000000000000000000000000000000000000000000000000081526004018080602001828103825260158152602001807f61646472657373206d757374206265206f776e6572000000000000000000000081525060200191505060405180910390fd5b600460009054906101000a900460ff1660ff1660016003805490500310151515611500576040517f08c379a00000000000000000000000000000000000000000000000000000000081526004018080602001828103825260268152602001807f63757272656e7420617070726f76616c73206973206c657373207468656e206d81526020017f696e696d756d000000000000000000000000000000000000000000000000000081525060400191505060405180910390fd5b611508611a34565b565b6000803373ffffffffffffffffffffffffffffffffffffffff1673ffffffffffffffffffffffffffffffffffffffff16815260200190815260200160002060009054906101000a900460ff1615156115ca576040517f08c379a00000000000000000000000000000000000000000000000000000000081526004018080602001828103825260158152602001807f61646472657373206d757374206265206f776e6572000000000000000000000081525060200191505060405180910390fd5b600460009054906101000a900460ff1660ff1660016003805490500310151515611682576040517f08c379a00000000000000000000000000000000000000000000000000000000081526004018080602001828103825260268152602001807f63757272656e7420617070726f76616c73206973206c657373207468656e206d81526020017f696e696d756d000000000000000000000000000000000000000000000000000081525060400191505060405180910390fd5b600160009054906101000a900460ff1660ff168160ff1611151515611735576040517f08c379a00000000000000000000000000000000000000000000000000000000081526004018080602001828103825260348152602001807f6d696e417070726f76616c206d75737420626520657175616c206f722067726581526020017f61746572207468616e207175616e744f776e657200000000000000000000000081525060400191505060405180910390fd5b6000600460009054906101000a900460ff16905081600460006101000a81548160ff021916908360ff1602179055507f28ba3dd0593e12f9c24e7737e91b308e9d18a2a256100e24c371545a321bfaf68183604051808360ff1660ff1681526020018260ff1660ff1681526020019250505060405180910390a16117b7611a34565b5050565b600080600260008473ffffffffffffffffffffffffffffffffffffffff1673ffffffffffffffffffffffffffffffffffffffff16815260200190815260200160002054905080915050919050565b6000803373ffffffffffffffffffffffffffffffffffffffff1673ffffffffffffffffffffffffffffffffffffffff16815260200190815260200160002060009054906101000a900460ff1615156118c9576040517f08c379a00000000000000000000000000000000000000000000000000000000081526004018080602001828103825260158152602001807f61646472657373206d757374206265206f776e6572000000000000000000000081525060200191505060405180910390fd5b6000600260003373ffffffffffffffffffffffffffffffffffffffff1673ffffffffffffffffffffffffffffffffffffffff1681526020019081526020016000205411151515611981576040517f08c379a00000000000000000000000000000000000000000000000000000000081526004018080602001828103825260188152602001807f6164647265737320616c726561647920617070726f766564000000000000000081525060200191505060405180910390fd5b6000600160033390806001815401808255809150509060018203906000526020600020016000909192909190916101000a81548173ffffffffffffffffffffffffffffffffffffffff021916908373ffffffffffffffffffffffffffffffffffffffff16021790555003905080600260003373ffffffffffffffffffffffffffffffffffffffff1673ffffffffffffffffffffffffffffffffffffffff1681526020019081526020016000208190555050565b600060038054905090506001811115611ae3576000600190505b81811015611ae157600060026000600384815481101515611a6b57fe5b9060005260206000200160009054906101000a900473ffffffffffffffffffffffffffffffffffffffff1673ffffffffffffffffffffffffffffffffffffffff1673ffffffffffffffffffffffffffffffffffffffff168152602001908152602001600020819055508080600101915050611a4e565b505b60036000611af19190611c07565b6003600090806001815401808255809150509060018203906000526020600020016000909192909190916101000a81548173ffffffffffffffffffffffffffffffffffffffff021916908373ffffffffffffffffffffffffffffffffffffffff1602179055505050565b828054600181600116156101000203166002900490600052602060002090601f016020900481019282601f10611b9c57805160ff1916838001178555611bca565b82800160010185558215611bca579182015b82811115611bc9578251825591602001919060010190611bae565b5b509050611bd79190611c28565b5090565b815481835581811115611c0257818360005260206000209182019101611c019190611c28565b5b505050565b5080546000825590600052602060002090810190611c259190611c28565b50565b611c4a91905b80821115611c46576000816000905550600101611c2e565b5090565b9056fea165627a7a72305820d9ddd8fbf87ccbd7ca33648df8c0a2f8365d977b7ffe4086d807a7a9588fb70a0029",
  "source": "pragma solidity ^0.5.1;\r\n\r\ncontract Ownerap {\r\n\r\n    mapping (address => bool) public owner;\r\n    uint8 public quantOwner;\r\n    mapping (address => uint256) public mapApproval;\r\n    address[] public arrayApproval;\r\n    uint8 public minApproval;\r\n\r\n    constructor() public {\r\n        arrayApproval.push(address(0x0));        //O indice zero do array não será utilizado\r\n        minApproval = 1;\r\n        owner[msg.sender] = true;\r\n        quantOwner = 1;\r\n    }\r\n\r\n    /*\r\n    * @dev Modifiers\r\n    */\r\n    modifier onlyApproved() {\r\n        require((arrayApproval.length - 1) >= minApproval, \"current approvals is less then minimum\");\r\n        _;\r\n    }\r\n    modifier notApproved() {\r\n        require(mapApproval[msg.sender] <= 0, \"address already approved\");\r\n        _;\r\n    }\r\n    modifier isApproved() {\r\n        require(mapApproval[msg.sender] > 0, \"address not approved yet\");\r\n        _;\r\n    }\r\n    modifier onlyOwner() {\r\n        require(owner[msg.sender], \"address must be owner\");\r\n        _;\r\n    }\r\n    modifier ownerExist(address _address) {\r\n        require(owner[_address] == true, \"owner not exists\");\r\n        _;\r\n    }\r\n    modifier ownerNotExist(address _address) {\r\n        require(owner[_address] == false, \"owner exists\");\r\n        _;\r\n    }\r\n\r\n\r\n    /*\r\n    * @dev MinApproval functions\r\n    */\r\n\r\n    event MinApprovalChanged(uint8 _minBefore, uint8 _minActual);\r\n\r\n    function changeMinApproval(uint8 _minApproval) public onlyOwner onlyApproved {\r\n        require(_minApproval <= quantOwner, \"minApproval must be equal or greater than quantOwner\");\r\n        uint8 _minBefore = minApproval;\r\n        minApproval = _minApproval;\r\n        emit MinApprovalChanged(_minBefore, _minApproval);\r\n        _clearAllApproval();\r\n    }\r\n\r\n    /*\r\n    * @dev Owner functions\r\n    */\r\n    event OwnerAdded(address indexed _address);\r\n    event OwnerDeleted(address indexed _address);\r\n    function addOwner(address _address) public onlyOwner onlyApproved ownerNotExist(_address) {\r\n        owner[_address] = true;\r\n        quantOwner += 1;\r\n        emit OwnerAdded(_address);\r\n        _clearAllApproval();\r\n    }\r\n\r\n    function delOwner(address _address) public onlyOwner onlyApproved ownerExist(_address) {\r\n        require(quantOwner >= minApproval, \"quantOwner must be equal or greater than minApproval\");\r\n        require(msg.sender != _address, \"address can not remove yourself\");\r\n        owner[_address] = false;\r\n        quantOwner -= 1;\r\n        emit OwnerDeleted(_address);\r\n        _clearAllApproval();\r\n    }\r\n    \r\n\r\n    /*\r\n    * @dev Address approvals\r\n    */\r\n    function doApproval() public onlyOwner notApproved {\r\n        uint256 index = arrayApproval.push(msg.sender) - 1;\r\n        mapApproval[msg.sender] = index;\r\n    } \r\n\r\n    function cancelApproval() public onlyOwner isApproved {\r\n        uint rowToDelete = mapApproval[msg.sender];\r\n        mapApproval[msg.sender] = 0;\r\n        address keyToMove = arrayApproval[arrayApproval.length-1];\r\n        arrayApproval[rowToDelete] = keyToMove;\r\n        mapApproval[keyToMove] = rowToDelete;\r\n        arrayApproval.length--;\r\n        mapApproval[msg.sender] = 0;\r\n    } \r\n\r\n    //Limpa as aprovações\r\n    function resetAllApproval() public onlyOwner onlyApproved {\r\n        _clearAllApproval();\r\n    } \r\n\r\n    function _clearAllApproval() internal {\r\n        uint256 length_ = arrayApproval.length;\r\n        if (length_ > 1) {\r\n            for (uint256 i = 1; i < length_; i++) {\r\n                mapApproval[arrayApproval[i]] = 0;\r\n            }\r\n        }\r\n        delete arrayApproval;\r\n        arrayApproval.push(address(0x0));\r\n    }\r\n    \r\n    //Verifica se determinado endereço aprovou, retorna o indice no array\r\n    function checkApproval(address _address) public view returns (uint256) {\r\n        uint256 index = mapApproval[_address];\r\n        return index;\r\n    } \r\n\r\n    //Lista endereços que aprovaram\r\n    function listApproval() public view returns (address[] memory) {\r\n        return arrayApproval;\r\n    }\r\n\r\n    //Retorna quantidade de aprovações\r\n    function countApproval() public view returns (uint256) {\r\n        return arrayApproval.length - 1;\r\n    }\r\n\r\n    string public info;\r\n\r\n    function setInfo(string memory _info) public onlyApproved  {\r\n        info = _info;\r\n        _clearAllApproval();\r\n    }\r\n    \r\n}",
  "sourcePath": "C:/Users/durae/projetos/testes-solidity/contracts/ownerap.sol",
  "compiler": {
    "name": "solc",
    "version": "0.5.1+commit.c8a2cb62.Emscripten.clang"
  },
  "schemaVersion": "3.0.11",
  "updatedAt": "2019-06-23T20:11:27.258Z",
  "devdoc": {
    "methods": {}
  },
  "userdoc": {
    "methods": {}
  }
}